:020000040800F2
:1000000000000120214F00081D4A00081F4A000877
:10001000214A0008234A0008254A00080000000081
:10002000000000000000000000000000274A000857
:10003000294A0008000000002B4A00082D4A000849
:10004000694F0008694F0008694F0008694F0008B0
:10005000694F0008694F0008694F0008694F0008A0
:10006000694F0008694F0008694F0008694F000890
:10007000694F0008694F0008694F0008694F000880
:10008000354A0008694F0008694F0008694F0008A9
:10009000694F0008694F0008694F0008694F000860
:1000A000694F0008694F0008694F0008694F000850
:1000B000694F0008694F0008694F0008694F000840
:1000C000694F0008694F0008694F0008694F000830
:1000D000694F0008454A0008554A0008694F000862
:1000E000694F0008694F0008694F0008694F000810
:1000F000694F0008694F0008694F0008694F000800
:10010000694F0008694F0008694F0008694F0008EF
:10011000694F0008694F0008694F0008694F0008DF
:10012000694F0008694F0008694F0008694F0008CF
:1001300000000000000000000000000000000000BF
:1001400000000000000000000000000000000000AF
:10015000000000000000000000000000000000009F
:10016000000000000000000000000000000000008F
:10017000000000000000000000000000000000007F
:10018000000000000000000000000000000000006F
:10019000000000000000000000000000000000005F
:1001A000000000000000000000000000000000004F
:1001B000000000000000000000000000000000003F
:1001C000000000000000000000000000000000002F
:1001D000000000000000000000000000000000001F
:0401E0005FF8E0F1F3
:1001E80010B5054C237833B9044B13B10448AFF369
:1001F80000800123237010BDD809002000000000F2
:1002080084C2000808B5034B1BB103490348AFF388
:10021800008008BD00000000DC09002084C200083E
:1002280081F0004102E000BF83F0004330B54FEA9F
:1002380041044FEA430594EA050F08BF90EA020F0C
:100248001FBF54EA000C55EA020C7FEA645C7FEA9F
:10025800655C00F0E2804FEA5454D4EB5555B8BFC2
:100268006D420CDD2C4480EA020281EA030382EA33
:10027800000083EA010180EA020281EA0303362DC5
:1002880088BF30BD11F0004F4FEA01314FF4801C98
:100298004CEA113102D0404261EB410113F0004FAA
:1002A8004FEA03334CEA133302D0524263EB430361
:1002B80094EA050F00F0A780A4F10104D5F1200EFF
:1002C8000DDB02FA0EFC22FA05F2801841F100015A
:1002D80003FA0EF2801843FA05F359410EE0A5F12E
:1002E80020050EF1200E012A03FA0EFC28BF4CF05F
:1002F800020C43FA05F3C01851EBE37101F0004515
:1003080007D54FF0000EDCF1000C7EEB00006EEB21
:100318000101B1F5801F1BD3B1F5001F0CD34908AB
:100328005FEA30004FEA3C0C04F101044FEA445202
:1003380012F5800F80F09A80BCF1004F08BF5FEA89
:10034800500C50F1000041EB045141EA050130BD69
:100358005FEA4C0C404141EB0101013C28BFB1F57B
:10036800801FE9D291F0000F04BF01460020B1FAC6
:1003780081F308BF2033A3F10B03B3F120020CDA99
:100388000C3208DD02F1140CC2F10C0201FA0CF077
:1003980021FA02F10CE002F11402D8BFC2F1200CDC
:1003A80001FA02F120FA0CFCDCBF41EA0C01904092
:1003B800E41AA2BF01EB0451294330BD6FEA0404DB
:1003C8001F3C1CDA0C340EDC04F11404C4F12002C6
:1003D80020FA04F001FA02F340EA030021FA04F3D8
:1003E80045EA030130BDC4F10C04C4F1200220FA2F
:1003F80002F001FA04F340EA0300294630BD21FA6D
:1004080004F0294630BD94F0000F83F4801306BF32
:1004180081F480110134013D4EE77FEA645C18BF26
:100428007FEA655C29D094EA050F08BF90EA020FBD
:1004380005D054EA000C04BF1946104630BD91EAB5
:10044800030F1EBF0021002030BD5FEA545C05D1B8
:100458004000494128BF41F0004130BD14F58004F7
:100468003CBF01F5801130BD01F0004545F0FE416B
:1004780041F470014FF0000030BD7FEA645C1ABFA0
:10048800194610467FEA655C1CBF0B46024650EAD7
:10049800013406BF52EA033591EA030F41F4002103
:1004A80030BD00BF90F0000F04BF0021704730B589
:1004B8004FF4806404F132044FF000054FF000015E
:1004C80050E700BF90F0000F04BF0021704730B51F
:1004D8004FF4806404F1320410F0004548BF4042F4
:1004E8004FF000013EE700BF42004FEAE2014FEA49
:1004F80031014FEA02701FBF12F07F4393F07F4F24
:1005080081F06051704732F07F4208BF704793F026
:100518007F4F04BF41F40021704730B54FF4607439
:1005280001F0004521F000411CE700BF50EA01023C
:1005380008BF704730B54FF000050AE050EA0102E5
:1005480008BF704730B511F0004502D5404261EB55
:1005580041014FF4806404F132045FEA915C3FF496
:10056800D8AE4FF003025FEADC0C18BF03325FEA33
:10057800DC0C18BF033202EBDC02C2F1200300FAE4
:1005880003FC20FA02F001FA03FE40EA0E0021FA09
:1005980002F11444BDE600BF70B54FF0FF0C4CF4F7
:1005A800E06C1CEA11541DBF1CEA135594EA0C0FA9
:1005B80095EA0C0F00F0DEF82C4481EA030621EAE4
:1005C8004C5123EA4C5350EA013518BF52EA03351F
:1005D80041F4801143F4801338D0A0FB02CE4FF0D1
:1005E8000005E1FB02E506F00042E0FB03E54FF001
:1005F8000006E1FB03569CF0000F18BF4EF0010EF9
:10060800A4F1FF04B6F5007F64F5407404D25FEAF4
:100618004E0E6D4146EB060642EAC62141EA5551A7
:100628004FEAC52040EA5E504FEACE2EB4F1FD0CE9
:1006380088BFBCF5E06F1ED8BEF1004F08BF5FEA67
:10064800500E50F1000041EB045170BD06F0004619
:1006580046EA010140EA020081EA0301B4EB5C04C6
:10066800C2BFD4EB0C0541EA045170BD41F48011BE
:100678004FF0000E013C00F3AB8014F1360FDEBFE3
:10068800002001F0004170BDC4F10004203C35DABF
:100698000C341BDC04F11404C4F1200500FA05F342
:1006A80020FA04F001FA05F240EA020001F00042E3
:1006B80021F0004110EBD37021FA04F642EB060159
:1006C8005EEA430E08BF20EAD37070BDC4F10C0483
:1006D800C4F1200500FA04F320FA05F001FA04F247
:1006E80040EA020001F0004110EBD37041F1000133
:1006F8005EEA430E08BF20EAD37070BDC4F120053E
:1007080000FA05F24EEA020E20FA04F301FA05F2A5
:1007180043EA020321FA04F001F0004121FA04F24D
:1007280020EA020000EBD3705EEA430E08BF20EA1D
:10073800D37070BD94F0000F0FD101F00046400057
:1007480041EB010111F4801F08BF013CF7D041EAD9
:10075800060195F0000F18BF704703F000465200DD
:1007680043EB030313F4801F08BF013DF7D043EAAE
:100778000603704794EA0C0F0CEA135518BF95EA64
:100788000C0F0CD050EA410618BF52EA4306D1D1EB
:1007980081EA030101F000414FF0000070BD50EA0A
:1007A800410606BF1046194652EA430619D094EA94
:1007B8000C0F02D150EA013613D195EA0C0F05D17E
:1007C80052EA03361CBF104619460AD181EA0301D2
:1007D80001F0004141F0FE4141F470014FF000008A
:1007E80070BD41F0FE4141F4780170BD70B54FF025
:1007F800FF0C4CF4E06C1CEA11541DBF1CEA1355A5
:1008080094EA0C0F95EA0C0F00F0A7F8A4EB050486
:1008180081EA030E52EA03354FEA013100F088807D
:100828004FEA03334FF0805545EA131343EA126346
:100838004FEA022245EA111545EA10654FEA0026FB
:100848000EF000419D4208BF964244F1FD0404F5B4
:10085800407402D25B084FEA3202B61A65EB030510
:100868005B084FEA32024FF480104FF4002CB6EBCD
:10087800020E75EB030E22BFB61A754640EA0C004D
:100888005B084FEA3202B6EB020E75EB030E22BF8D
:10089800B61A754640EA5C005B084FEA3202B6EBCE
:1008A800020E75EB030E22BFB61A754640EA9C008D
:1008B8005B084FEA3202B6EB020E75EB030E22BF5D
:1008C800B61A754640EADC0055EA060E18D04FEA1B
:1008D800051545EA16754FEA06164FEAC30343EABB
:1008E80052734FEAC2025FEA1C1CC0D111F4801F88
:1008F8000BD141EA00014FF000004FF0004CB6E781
:1009080011F4801F04BF01430020B4F1FD0C88BF1F
:10091800BCF5E06F3FF6AFAEB5EB030C04BFB6EB2A
:10092800020C5FEA500C50F1000041EB045170BD1D
:100938000EF0004E4EEA113114EB5C04C2BFD4EB4A
:100948000C0541EA045170BD41F480114FF0000ECE
:10095800013C90E645EA060E8DE60CEA135594EA4A
:100968000C0F08BF95EA0C0F3FF43BAF94EA0C0F4D
:100978000AD150EA01347FF434AF95EA0C0F7FF4C2
:1009880025AF104619462CE795EA0C0F06D152EA16
:1009980003353FF4FDAE1046194622E750EA4106FA
:1009A80018BF52EA43067FF4C5AE50EA41047FF40B
:1009B8000DAF52EA43057FF4EBAE12E74A0011D2BD
:1009C80012F5001211D20DD56FF47873B3EB6252A1
:1009D8000ED44FEAC12343F0004343EA505323FAAD
:1009E80002F070474FF00000704750EA013002D122
:1009F8004FF0FF3070474FF00000704780F0004024
:100A080002E000BF81F0004142001FBF5FEA4103DE
:100A180092EA030F7FEA226C7FEA236C6AD04FEADE
:100A28001262D2EB1363C1BFD21841404840414023
:100A3800B8BF5B42192B88BF704710F0004F40F4D5
:100A4800000020F07F4018BF404211F0004F41F4F1
:100A5800000121F07F4118BF494292EA030F3FD0BD
:100A6800A2F1010241FA03FC10EB0C00C3F12003D0
:100A780001FA03F100F0004302D5494260EB40005F
:100A8800B0F5000F13D3B0F1807F06D340084FEACA
:100A9800310102F10102FE2A51D2B1F1004F40EBBF
:100AA800C25008BF20F0010040EA03007047490027
:100AB80040EB0000013A28BFB0F5000FEDD2B0FAC4
:100AC80080FCACF1080CB2EB0C0200FA0CF0AABFE7
:100AD80000EBC25052421843BCBFD0401843704785
:100AE80092F0000F81F4000106BF80F4000001328B
:100AF800013BB5E74FEA41037FEA226C18BF7FEA62
:100B0800236C21D092EA030F04D092F0000F08BFA3
:100B18000846704790EA010F1CBF0020704712F08A
:100B28007F4F04D1400028BF40F00040704712F1C9
:100B380000723CBF00F50000704700F0004343F02E
:100B4800FE4040F4000070477FEA226216BF084664
:100B58007FEA23630146420206BF5FEA412390EA27
:100B6800010F40F4800070474FF0000304E000BF1D
:100B780010F0004348BF40425FEA000C08BF7047CE
:100B880043F0964301464FF000001CE050EA010292
:100B980008BF70474FF000030AE000BF50EA0102A7
:100BA80008BF704711F0004302D5404261EB410194
:100BB8005FEA010C02BF84460146002043F0B643B9
:100BC80008BFA3F18053A3F50003BCFA8CF2083ADE
:100BD800A3EBC25310DB01FA02FC634400FA02FCE7
:100BE800C2F12002BCF1004F20FA02F243EB0200EE
:100BF80008BF20F00100704702F1200201FA02FC50
:100C0800C2F1200250EA4C0021FA02F243EB020042
:100C180008BF20EADC707047844641EA000313F0FD
:100C2800030349D1403A23D30B6803604B68436000
:100C38008B688360CB68C3600B6903614B69436150
:100C48008B698361CB69C3610B6A03624B6A436238
:100C58008B6A8362CB6AC3620B6B03634B6B436320
:100C68008B6B8363CB6BC36340304031403ADBD23C
:100C780030320BD30B6803604B6843608B6883602A
:100C8800CB68C36010301031103AF3D20C3205D360
:100C980051F8043B40F8043B043AF9D2043208D036
:100CA800D2071CBF11F8013B00F8013B01D30B88A8
:100CB80003806046704700BF082A13D38B07B1D062
:100CC80010F00303AED0C3F10403D21ADB071CBF34
:100CD80011F8013B00F8013BA4D331F8023B20F89E
:100CE800023B9FE7043AD9D3013A11F8013B00F8D7
:100CF800013BF9D20B7803704B7843708B78837083
:100D0800604670474FF0FF3C06E000BF4FF0010C13
:100D180002E000BF4FF0010C4DF804CD4FEA410C42
:100D28007FEA6C5C4FEA430C18BF7FEA6C5C1BD00F
:100D380001B050EA410C0CBF52EA430C91EA030F90
:100D480002BF90EA020F0020704710F1000F91EAED
:100D5800030F58BF994208BF90422CBFD8176FEABB
:100D6800E37040F0010070474FEA410C7FEA6C5C89
:100D780002D150EA013C07D14FEA430C7FEA6C5C90
:100D8800D6D152EA033CD3D05DF8040B704700BFBC
:100D98008446104662468C461946634600E000BF0A
:100DA80001B5FFF7B7FF002848BF10F1000F01BDDC
:100DB8004DF808EDFFF7F4FF0CBF012000205DF8A7
:100DC80008FB00BF4DF808EDFFF7EAFF34BF01202C
:100DD80000205DF808FB00BF4DF808EDFFF7E0FFC5
:100DE80094BF012000205DF808FB00BF4DF808ED16
:100DF800FFF7CEFF94BF012000205DF808FB00BF7D
:100E08004DF808EDFFF7C4FF34BF012000205DF85E
:100E180008FB00BF4FEA410C7FEA6C5C02D150EA44
:100E2800013C0AD14FEA430C7FEA6C5C02D152EADA
:100E3800033C02D14FF0000070474FF001007047AB
:100E48004FEA410212F5001215D211D56FF47873EA
:100E5800B3EB625212D94FEAC12343F0004343EA8D
:100E6800505311F0004F23FA02F018BF4042704768
:100E78004FF00000704750EA013005D111F00040F2
:100E880008BF6FF0004070474FF00000704700BF88
:100E980053B94AB9002908BF00281CBF4FF0FF31D9
:100EA8004FF0FF3000F06EB9ADF1080C6DE904CEDB
:100EB80000F006F8DDF804E0DDE9022304B070472D
:100EC8002DE9F047089E0D4604468E46002B40F05B
:100ED80083808A42174647D9B2FA82F34BB1C3F1ED
:100EE800200105FA03FE20FA01F19F4041EA0E0EA7
:100EF8009C404FEA1748BEFBF8FC1FFA87F908FB2D
:100F08001CE20CFB09F0210C41EA024290420AD98A
:100F1800BA180CF1FF3180F01881904240F2158127
:100F2800ACF1020C3A44121AB2FBF8F008FB10229A
:100F380000FB09F1A4B244EA0244A14209D93C19D0
:100F480000F1FF3280F00381A14240F200810238B3
:100F58003C44641A002140EA0C401EB10022DC40E7
:100F6800C6E90042BDE8F08702B9FFDEB2FA82F3B3
:100F7800002B4FD18D1A01214FEA124E1FFA82F829
:100F8800B5FBFEFC0EFB1C5508FB0CF0220C42EADC
:100F98000545A84207D97D190CF1FF3202D2A842B3
:100FA80000F2E98094462D1AB5FBFEF00EFB1055B1
:100FB80008FB00F8A4B244EA0544A04507D93C1947
:100FC80000F1FF3202D2A04500F2D9801046A4EB0E
:100FD800080440EA0C40C0E78B4208D9002E00F014
:100FE800B1800021C6E900050846BDE8F087B3FADC
:100FF80083F100294BD1AB4202D3824200F2B9807F
:10100800841A65EB030301209E46002EAAD0C6E988
:10101800004EA7E79F40C3F12002D1404FEA174E88
:10102800B1FBFEF01FFA87F80EFB101124FA02F24A
:101038009D4000FB08FC2A43150C45EA0145AC45D8
:1010480004FA03F409D97D1900F1FF3180F08F808B
:10105800AC4540F28C8002383D44A5EB0C05B5FB4D
:10106800FEF10EFB115C01FB08F995B245EA0C454F
:10107800A94507D97D1901F1FF3274D2A94572D962
:1010880002393D44A5EB090541EA004178E7C1F181
:1010980020078B4022FA07FC4CEA030C25FA07F4D8
:1010A8004FEA1C4EB4FBFEF91FFA8CF80EFB1944EC
:1010B80020FA07F309FB08FA8D401D432B0C43EA7D
:1010C8000444A24502FA01F200FA01F309D91CEB23
:1010D800040409F1FF3048D2A24546D9A9F1020912
:1010E8006444A4EB0A04B4FBFEF00EFB104400FBBE
:1010F80008FAADB245EA0444A24508D91CEB040439
:1011080000F1FF352DD2A2452BD90238644440EABC
:101118000940A0FB0289A4EB0A044C45C6464D468B
:1011280019D316D05EB1B3EB0E0264EB050404FAD2
:1011380007F722FA01F31F43CC40C6E900740021E7
:10114800BDE8F087314630460CE78C46EBE61046A2
:10115800FFE64345E6D2B8EB020E69EB0C05013811
:10116800E0E72846D3E711468CE78146B9E7084609
:1011780073E7084649E7ACF1020C3D4413E702382F
:101188003C4424E7704700BF10B504460E4B18785E
:101198004FF47A73B3FBF0F30C4A1068B0FBF3F02A
:1011A80000F0A4F868B90F2C01D901200AE0002248
:1011B80021464FF0FF3000F057F8054B1C60002027
:1011C80000E0012010BD00BF000000202400002026
:1011D8000400002008B5074A136843F010031360A1
:1011E800032000F02FF80F20FFF7CEFF03F0F0FBED
:1011F800002008BD00200240034A1168034B1B78F9
:101208000B441360704700BFF40900200000002061
:10121800014B1868704700BFF409002038B5044630
:10122800FFF7F6FF0546B4F1FF3F02D0044B1B78E9
:101238001C44FFF7EDFF401BA042FAD338BD00BFA6
:1012480000000020074AD36823F4E0631B041B0C4A
:10125800000200F4E060034343F0BF6343F400334B
:10126800D360704700ED00E030B4174BDB68C3F380
:101278000223C3F10704042C28BF04241D1D062DD6
:1012880018D9033B4FF0FF3505FA04F421EA0401AD
:10129800994005FA03F322EA0303194300280BDBFC
:1012A8000901C9B200F1604000F5614080F80013FF
:1012B80030BC70470023E5E700F00F000901C9B210
:1012C800024B1954F4E700BF00ED00E014ED00E014
:1012D800002807DB00F01F02400901239340024A5F
:1012E80042F82030704700BF00E100E00138B0F15B
:1012F800807F0AD2064B5860064AF02182F82310F4
:101308000020986007221A6070470120704700BFCC
:1013180010E000E000ED00E070B4066CC56B01243D
:10132800B4406C60046863604368102B05D00368A0
:1013380099600368DA6070BC704703689A60036854
:10134800D960F8E700283AD010B4024600681D4B6F
:10135800984229D81C4B03441C49A1FB03131B09C1
:101368009B0013641A4BD363022382F8213001686F
:1013780021F47F5121F03001536894682343D468E5
:101388002343146923435469234394692343D46949
:1013980023430B43036000209063012382F821302C
:1013A80082F8200010BC70470A4B03440749A1FB90
:1013B80003131B099B001364074BD363D4E7012075
:1013C800704700BF07040240F8FFFDBFCDCCCCCC6E
:1013D80000000240F8FBFDBF0004024038B5044697
:1013E80090F82000012832D0012084F8200094F8D9
:1013F8002100C0B2012804D0002384F82030022044
:1014080038BD022084F821000020A06325682868E0
:1014180020F0010028602046FFF77EFFE36A5BB1F9
:101428002268136843F00E0313602268136843F0C0
:10143800010313600020E3E72268136823F0040324
:1014480013602268136843F00A031360EDE7022073
:10145800D6E790F82130DBB2022B06D00423836351
:10146800002380F82030012070470268136823F0B9
:101478000E0313600268136823F001031360036C02
:10148800C16B012202FA03F34B6080F8212000238C
:1014980080F820301846704708B590F82130DBB244
:1014A800022B03D004238363012008BD026813685C
:1014B80023F00E0313600268136823F0010313601E
:1014C80003684C4A93424ED9783A934224D0143256
:1014D800934230D0143293422FD0143293422FD0FB
:1014E800143293422FD0143293422FD014329342A5
:1014F8002FD002F5627293422ED0143293422DD02F
:10150800143293422CD01432934202D04FF48032DA
:1015180003E04FF4805200E00122374B5A60012368
:1015280080F82130002380F82030436B002B5ED0F8
:1015380098470020B9E71022EFE74FF48072ECE7F4
:101548004FF48052E9E74FF48032E6E74FF4801217
:10155800E3E74FF08072E0E70122DEE71022DCE7E4
:101568004FF48072D9E7254A934224D0143293422B
:1015780025D01432934224D01432934224D014320A
:10158800934224D01432934224D01432934224D06C
:1015980002F56272934223D01432934222D014325D
:1015A800934221D01432934202D04FF4803203E0A8
:1015B8004FF4805200E00122114B5A60AFE710222D
:1015C800FAE74FF48072F7E74FF48052F4E74FF4EC
:1015D8008032F1E74FF48012EEE74FF08072EBE7CC
:1015E8000122E9E71022E7E74FF48072E4E70020E0
:1015F8005BE700BF80000240000402400800024090
:101608000000024038B5C36B1A6804682568016C8D
:1016180004238B40134200F09B8015F0040F00F068
:101628009780236813F0200F03D1236823F0040365
:1016380023600368AA4A934246D9783A934224D051
:101648001432934228D01432934227D01432934252
:1016580027D01432934227D01432934227D0143221
:10166800934227D002F56272934226D014329342F5
:1016780025D01432934224D01432934202D04FF42E
:10168800802203E04FF4804200E00422954B5A6028
:10169800C36A03B1984738BD4022F7E74FF4806228
:1016A800F4E74FF48042F1E74FF48022EEE74FF47D
:1016B8008002EBE74FF08062E8E70422E6E7402289
:1016C800E4E74FF48062E1E7874A934224D014327A
:1016D800934225D01432934224D01432934224D01A
:1016E8001432934224D01432934224D014329342B9
:1016F80024D002F56272934223D01432934222D04E
:101708001432934221D01432934202D04FF48022F3
:1017180003E04FF4804200E00422744B5A60B7E7BC
:101728004022FAE74FF48062F7E74FF48042F4E78B
:101738004FF48022F1E74FF48002EEE74FF0806229
:10174800EBE70422E9E74022E7E74FF48062E4E7A9
:1017580002238B40134200F0A38015F0020F00F023
:101768009F80236813F0200F06D1236823F00A0313
:101778002360012380F821300368594A93424BD9EA
:10178800783A934224D0143293422DD014329342A3
:101798002CD0143293422CD0143293422CD01432D1
:1017A80093422CD0143293422CD002F562729342A9
:1017B8002BD0143293422AD01432934229D01432B7
:1017C800934202D04FF4003203E04FF4005200E09D
:1017D8000222444B5A60002380F82030836A002B91
:1017E8003FF459AF984756E72022F2E74FF40072CA
:1017F800EFE74FF40052ECE74FF40032E9E74FF41B
:101808000012E6E74FF00072E3E70222E1E7202248
:10181800DFE74FF40072DCE7334A934224D01432F6
:10182800934225D01432934224D01432934224D0C8
:101838001432934224D01432934224D01432934267
:1018480024D002F56272934223D01432934222D0FC
:101858001432934221D01432934202D04FF4003212
:1018680003E04FF4005200E00222204B5A60B2E736
:101878002022FAE74FF40072F7E74FF40052F4E73A
:101888004FF40032F1E74FF40012EEE74FF0007228
:10189800EBE70222E9E72022E7E74FF40072E4E7EA
:1018A800082303FA01F111423FF4F5AE15F0080FD1
:1018B8003FF4F1AE236823F00E032360026CC16B82
:1018C800012303FA02F24A60836380F8213000237F
:1018D80080F82030036B002B3FF4DDAE9847DAE642
:1018E800800002400004024008000240000002405C
:1018F800F0B482B000252C46ABE0854FBB4210D037
:1019080007D9844FBB420CD007F58037BB4208D0BB
:1019180013E0A7F58017BB4203D007F57027BB4239
:1019280007D18B68002B60D0012B59D04261082564
:1019380003E0A7F58017BB42F3D0FF2E57D88446A3
:10194800FF2E57D8A200DCF800300F27974023EA73
:10195800070305FA02F21343CCF800304B6813F082
:10196800805F75D06C4B9A6942F001029A619B695D
:1019780003F001030193019BA208971C674B53F8DE
:1019880027C004F003039F000F23BB402CEA030C7D
:10199800634B984234D003F58063984200F09480FA
:1019A80003F58063984200F0918003F580639842C4
:1019B80000F08E8003F58063984200F08B8003F579
:1019C800806398421AD006231BE0CD68B5E7CD683E
:1019D8000435B2E7CD680835AFE7CD680C35ACE71C
:1019E80002610825A9E70025A7E70425A5E700F176
:1019F800040CA5E7A4F108029200A4E7052300E07F
:101A08000023BB4043EA0C030232444F47F822301C
:101A18004B6813F4801F5FD0424A93683343936046
:101A28004B6813F4001F5DD03E4AD3683343D3603C
:101A38004B6813F4003F5BD03A4A53683343536012
:101A48004B6813F4803F59D0364A13681E4316601A
:101A580001340B6833FA04F256D00122A24003EA9B
:101A6800020632EA0303F3D14B68122B3FF645AF67
:101A7800122B3FF662AF01A757F823F02B19000885
:101A8800D3190008DD190008EF19000843190008E8
:101A980043190008431900084319000843190008AE
:101AA800431900084319000843190008431900089E
:101AB800431900084319000843190008431900088E
:101AC800D7190008E319000801239AE7022398E7C9
:101AD800032396E7042394E7124A936823EA06034C
:101AE80093609DE70F4AD36823EA0603D3609FE714
:101AF8000C4A536823EA06035360A1E7094A1368AE
:101B080023EA06061660A3E702B0F0BC704700BFE0
:101B180000002210000031100010024000000140B7
:101B280000080140000401408368194201D00120E7
:101B38007047002070470AB10161704709040161CC
:101B4800704703685A6912F4806F01D1002070470A
:101B58006FF480625A6100230363202280F83D20DD
:101B680080F83E30026C42F00402026480F83C3097
:101B7800012070472DE9F04780460D4616469946E4
:101B880040E0FFF745FB089BC01A484502D8B9F169
:101B9800000F37D1012F1CD0D8F800309B6925EAF7
:101BA80003039BB2B3FA83F35B099A452AD1002356
:101BB800C8F83030202288F83D2088F83E30D8F820
:101BC800402042F02002C8F8402088F83C3001202C
:101BD80027E0D8F800305B6925EA03039BB2B3FA23
:101BE80083F35B09E1E7D8F800309C6925EA04042F
:101BF800A4B2B4FA84F46409B246A64210D1B9F189
:101C0800FF3FBED1C5F30747012FECD1D8F800300C
:101C18005C6925EA0404A4B2B4FA84F46409EBE725
:101C28000020BDE8F0872DE9F84305460E469046AA
:101C3800994653E01A6842F400721A602B686FF4F0
:101C480080625A6100232B63202285F83D2085F8A5
:101C58003E302A6C42F004022A6485F83C300120A8
:101C68004AE0FFF7D5FAA0EB0900404502D8B8F1E1
:101C7800000F33D1012F17D02B689B6926EA030385
:101C88009BB2003B18BF012343B300232B632022E0
:101C980085F83D2085F83E302A6C42F020022A64FF
:101CA80085F83C30012027E02B685B6926EA0303AE
:101CB8009BB2003B18BF0123E6E72B689C6926EA24
:101CC8000404A4B2003C18BF0124A4B12B685A69CB
:101CD80012F4806FAED1B8F1FF3FC2D1C6F3074707
:101CE800012FEAD12B685C6926EA0404A4B2003CFF
:101CF80018BF0124E9E70020BDE8F88370B5044661
:101D08000D46164623685B6913F0800F21D12046E3
:101D1800FFF717FFF8B9B5F1FF3FF3D0FFF778FAEF
:101D2800801BA84201D8002DECD123685B6913F011
:101D3800800FE7D100232363202284F83D2084F814
:101D48003E30226C42F02002226484F83C300120AC
:101D580000E0002070BD0120FCE700002DE9F04301
:101D680085B004460D4691461F46DDF830800D9E2D
:101D78000368196841F4807119600096434600228F
:101D88004FF00111FFF7F6FE60B9236805F0FE0574
:101D98001D613346424626492046FFF744FF68B195
:101DA800012008E023681B6813F4807F02D04FF4F9
:101DB80000732364032005B0BDE8F0830023039378
:101DC80023685A6903929B690393039B32464146F1
:101DD8002046FFF793FF30B9012F0FD123685FFA30
:101DE80089F61E61E7E7236C042B01D00120E2E7A6
:101DF8002268136843F400731360F7E723684FEA17
:101E080019221A61324641462046FFF777FF20B96A
:101E180023685FFA89F61E61CDE7236C042B01D095
:101E28000120C8E72268136843F400731360F7E7DA
:101E38000200010070B504460D46164623685B692A
:101E480013F0040F21D12046FFF77BFEF8B9B5F156
:101E5800FF3FF3D0FFF7DCF9801BA84201D8002D23
:101E6800ECD123685B6913F0040FE7D100232363E7
:101E7800202284F83D2084F83E30226C42F0200273
:101E8800226484F83C30012000E0002070BD01206D
:101E9800FCE70000002800F0CC80F8B5044690F874
:101EA8003D30002B77D0242384F83D302268136816
:101EB80023F0010313602268136843F4004313609E
:101EC8002268136823F40043136000F07DFC626805
:101ED8005A4B9A4264D85A4B98428CBF002301232C
:101EE800002B40F0A880574DA5FB0035AF0C2668A5
:101EF800716821F03F0141EA9541716021680B6AE0
:101F080023F03F0365684D4A95424FD87A1C134326
:101F18000B622568E96921F44F4121F0FF016368EC
:101F2800464A93424CD801385B00B0FBF3F00130CD
:101F380040F6FC73184278D0C0F30B030B43EB61F7
:101F480021680B6823F0C003E269206A0243134347
:101F58000B6021688B6823F4034323F0FF03226995
:101F6800E068024313438B602168CB6823F0FF03CA
:101F78006269A06902431343CB602268136843F087
:101F88000103136000202064202384F83D3020637F
:101F980084F83E00F8BD80F83C3001F0C3FF82E7CA
:101FA800294B98428CBF0023012399E74FF496727E
:101FB80002FB07F2254DA5FB025292090132A6E762
:101FC800A268BAB9461E03EB4307B6FBF7F601361B
:101FD800C6F30B06B6FA86F6760946BBC2B9421EA8
:101FE80003EB4303B2FBF3F20132C2F30B0242F4F8
:101FF8000043A3E7461E03EB830707EB8707B6FBFF
:10200800F7F60136C6F30B06B6FA86F67609E4E764
:10201800421E03EB830303EB8303B2FBF3F20132AB
:10202800C2F30B0242F4404388E7042386E7012306
:1020380084E7012070470120ACE700BFA0860100BB
:102048007F841E0083DE1B43FF083D00D34D6210D2
:102058002DE9F04383B004460F46904699460C9EFE
:10206800FFF7D6F8054694F83D00C0B2202803D003
:10207800022003B0BDE8F0830095192301224B49E3
:102088002046FFF777FD002840F0898094F83C301F
:10209800012B00F08680012384F83C3023681A68FD
:1020A80012F0010F03D11A6842F001021A60226887
:1020B800136823F400631360212384F83D30402320
:1020C80084F83E30002323640A9B6362BDF82C30F9
:1020D8006385638D2385364BE362019500964B46F5
:1020E800424639462046FFF739FE00285BD1238D4A
:1020F800002B35D02A4631462046FFF7FFFD20BB8E
:10210800626A236812781A61616A4B1C6362228DC5
:10211800013A92B22285638D9BB2013B9BB26385E3
:102128002368586910F0040FE1D0002ADFD04A78FC
:102138001A61636A01336362238D013B2385638DD2
:102148009BB2013B9BB26385D1E7236C042B01D082
:1021580001208EE72268136843F400731360F7E7E1
:102168002A4631462046FFF765FE50B1236C042B02
:1021780001D001207DE72268136843F400731360DF
:10218800F7E72268136843F400731360202384F888
:102198003D30002384F83E3084F83C3069E7022063
:1021A80067E7022065E7012063E700BF020010002F
:1021B8000000FFFF014B01221A60704720000E4209
:1021C80082B0084B1B68084AA2FB03235B0A00FB8A
:1021D80003F3019300BF019B5A1E0192002BF9D112
:1021E80002B0704724000020D34D6210002800F090
:1021F800F18170B582B00446036813F0010F2CD04A
:10220800AA4B5B6803F00C03042B1DD0A74B5B683B
:1022180003F00C03082B12D06368B3F5803F41D05C
:10222800002B55D103F1804303F504331A6822F4D7
:1022380080321A601A6822F480221A6037E09B4BB9
:102248005B6813F4803FE7D0984B1B6813F4003F9A
:1022580003D06368002B00F0BF81236813F0020FDE
:1022680075D0924B5B6813F00C0F5FD08F4B5B6897
:1022780003F00C03082B54D02369002B00F089804D
:102288008B4B01221A60FEF7C3FF0546874B1B687C
:1022980013F0020F74D1FEF7BBFF401B0228F5D9DB
:1022A80003209EE1814A136843F480331360636816
:1022B80043B3FEF7ADFF05467C4B1B6813F4003FA4
:1022C800CBD1FEF7A5FF401B6428F5D9032088E190
:1022D800B3F5A02F09D0754B1A6822F480321A6022
:1022E8001A6822F480221A60E1E703F18043A3F51B
:1022F8003C331A6842F480221A601A6842F4803229
:102308001A60D4E7FEF784FF0546684B1B6813F490
:10231800003FA2D0FEF77CFF401B6428F5D90320BC
:102328005FE1624B5B6813F4803FA5D15F4B1B688C
:1023380013F0020F03D02369012B40F04F815B4A51
:10234800136823F0F803616943EAC1031360236843
:1023580013F0080F32D0A369002B45D0554B01224A
:102368001A60FEF755FF0546504B5B6A13F0020FE3
:1023780021D1FEF74DFF401B0228F5D9032030E19B
:102388004A4A136823F0F803616943EAC1031360FA
:10239800DDE7474B00221A60FEF73AFF0546434B3C
:1023A8001B6813F0020FD2D0FEF732FF401B022841
:1023B800F5D9032015E10120FFF702FF236813F088
:1023C800040F00F09780394BDB6913F0805F1DD153
:1023D800364BDA6942F08052DA61DB6903F08053E8
:1023E8000193019B012512E0324B00221A60FEF78F
:1023F8000FFF05462D4B5B6A13F0020FDED0FEF788
:1024080007FF401B0228F5D90320EAE000252A4BE4
:102418001B6813F4807F11D0E368012B22D0002BB6
:1024280038D103F1804303F504331A6A22F001021C
:102438001A621A6A22F004021A6218E01E4A136825
:1024480043F480731360FEF7E3FE06461A4B1B68DD
:1024580013F4807FE0D1FEF7DBFE801B6428F5D9FA
:102468000320BEE0114A136A43F001031362E368D4
:1024780073B3FEF7CDFE06460C4B1B6A13F0020F32
:1024880037D1FEF7C5FE801B41F288339842F3D955
:102498000320A6E0052B11D0044B1A6A22F0010292
:1024A8001A621A6A22F004021A62E0E70010024077
:1024B8000000424280044242007000404D4B1A6ABC
:1024C80042F004021A621A6A42F001021A62CEE766
:1024D800FEF79EFE0646474B1B6A13F0020F08D014
:1024E800FEF796FE801B41F288339842F3D9032009
:1024F80077E0E5B9E369002B72D03E4A526802F0F2
:102508000C02082A56D0022B17D03B4B00221A6027
:10251800FEF77EFE0446374B1B6813F0007F47D05A
:10252800FEF776FE001B0228F5D9032059E0314A50
:10253800D36923F08053D361DCE72F4B00221A6064
:10254800FEF766FE05462B4B1B6813F0007F06D08E
:10255800FEF75EFE401B0228F5D9032041E0236AFE
:10256800B3F5803F1AD023494B6823F47413226AC9
:10257800606A024313434B601F4B01221A60FEF747
:1025880047FE04461B4B1B6813F0007F0ED1FEF775
:102598003FFE001B0228F5D9032022E0154A5368A4
:1025A80023F40033A1680B435360DCE7002018E0F4
:1025B800002016E0012B16D00E4B5B6803F4803127
:1025C800226A914211D103F47013626A93420ED1C8
:1025D800002006E001207047012002E0012000E011
:1025E800002002B070BD0120FBE70120F9E70120BF
:1025F800F7E700BF00100240600042420F4B5B68E3
:1026080003F00C02082A01D00D487047C3F3834237
:102618000C498A5C13F4803F0BD0084B5B68C3F30A
:1026280040430949CB5C064800FB02F0B0FBF3F0DD
:102638007047064800FB02F0704700BF00100240D8
:1026480000127A00A0C20008B0C2000800093D00CC
:10265800002800F0A08070B50D460446524B1B6858
:1026680003F007038B420BD24F4A136823F007038A
:102678000B431360136803F007038B4240F08D800F
:10268800236813F0020F17D013F0040F04D0474A41
:10269800536843F4E0635360236813F0080F04D0D1
:1026A800424A536843F460535360404A536823F0E6
:1026B800F003A1680B435360236813F0010F31D076
:1026C8006368012B20D0022B25D0384A126812F0FB
:1026D800020F64D035494A6822F0030213434B6065
:1026E800FEF796FD0646314B5B6803F00C03626803
:1026F800B3EB820F16D0FEF78BFD801B41F28833B7
:102708009842F0D9032045E0284A126812F4003FA5
:10271800E0D101203EE0254A126812F0007FD9D1AD
:10272800012037E0204B1B6803F00703AB420AD9AE
:102738001D4A136823F007032B431360136803F043
:102748000703AB422DD1236813F0040F06D0174AB4
:10275800536823F4E063E1680B435360236813F084
:10276800080F07D0114A536823F46053216943EADC
:10277800C1035360FFF742FF0C4B5B68C3F30313BD
:102788000B4AD35CD8400B4B18600B4B1868FEF70C
:10279800FBFC002070BD012070470120FAE70120F2
:1027A800F8E70120F6E700BF0020024000100240D1
:1027B8001CD100082400002004000020014B1868E8
:1027C800704700BF2400002008B5FFF7F7FF044B4F
:1027D8005B68C3F30223034AD35CD84008BD00BF3B
:1027E800001002402CD1000808B5FFF7E7FF044BA2
:1027F8005B68C3F3C223034AD35CD84008BD00BF5B
:10280800001002402CD1000870B582B0044603685D
:1028180013F0010F34D03E4BDB6913F0805F47D1D2
:102828003B4BDA6942F08052DA61DB6903F080538E
:102838000193019B0125374B1B6813F4807F39D026
:10284800334B1B6A13F4407311D0626802F4407270
:102858009A420CD02E4A136A23F440702E4901265E
:102868000E6000260E60106213F0010F36D1284A60
:10287800136A23F4407361680B431362002D3ED141
:10288800236813F0020F06D0214A536823F440430B
:10289800A1680B435360236813F0100F34D01C4A0F
:1028A800536823F4800361690B43536000202CE0D4
:1028B8000025C0E7174A136843F480731360FEF7D6
:1028C800A7FC0646134B1B6813F4807FB8D1FEF7AC
:1028D8009FFC801B6428F5D9032016E0FEF798FCBE
:1028E80006460B4B1B6A13F0020FC0D1FEF790FC93
:1028F800801B41F288339842F3D9032005E0D3695D
:1029080023F08053D361BBE7002002B070BD00BF45
:1029180000100240007000404004424208B50138EF
:102928000F2863D8DFE800F03557622F6262623201
:1029380062626262626262082F4B5A68186810F01D
:10294800807054D0C2F383432C49C85C12F4803F92
:1029580015D0294B5B68C3F34043294AD25C294B05
:10296800B3FBF2F300FB03F0234B5B6813F4800F17
:102978003DD14000244BA3FB0030400837E0234BF7
:1029880003FB00F0F0E7FFF739FE30E0FFF736FE13
:102998002DE0194B1B6A40F202321A40B2F5817FD2
:1029A80026D003F44073B3F5007F04D0B3F5407F1D
:1029B80009D000201BE0104A526A12F0020FF5D02D
:1029C80049F6404013E00C4B186810F400300ED064
:1029D8004FF224400BE0FFF707FF074B5B68C3F398
:1029E800813301335B00B0FBF3F000E0002008BD49
:1029F8004FF40040FBE700BF00100240B4C20008DB
:102A0800C4C2000800127A00ABAAAAAA00093D00B5
:102A180038B50446FEF7FCFB054623685A6812F0F1
:102A2800200F07D1FEF7F4FB401BB0F57A7FF4D9ED
:102A3800032004E05A6842F010025A60002038BDB2
:102A480038B504460268536823F010035360FEF754
:102A5800DFFB054623685B6813F0200F07D1FEF7FC
:102A6800D7FB401BB0F57A7FF4D9032000E00020A3
:102A780038BDC0B138B505460268536823F008036D
:102A88005360FEF7C5FB04462B685B6813F0080F1C
:102A980007D1FEF7BDFB001BB0F57A7FF4D9032000
:102AA80000E0002038BD012070470000002850D009
:102AB80010B50446437C4BB1022363742046FFF7EC
:102AC800D8FF38B104236374012010BD037401F0EA
:102AD800A7FDF1E72046FFF79BFF28BB2268536854
:102AE80023F007035360A36823B11B4A136B23F039
:102AF80001031363184AD36A23F46073A1680B4374
:102B0800D3626368B3F1FF3F12D02268C3F3034175
:102B1800916022689BB2D3602046FFF791FF88B18D
:102B2800042363740120D0E7042363740120CCE7F5
:102B38000120FFF7F3FE08B1431EE6E704236374A0
:102B48000120C2E70023E37301236373A373637453
:102B5800BBE70120704700BF006C004030B4036A37
:102B6800056A25F001050562846924F0F00444EA49
:102B7800021423F00A030B438461036230BC7047DC
:102B880030B4036A056A25F010050562846924F4E7
:102B9800704444EA023423F0A00343EA0113846139
:102BA800036230BC7047836823F070030B4343F023
:102BB800070383607047000090F83D30DBB2012BBB
:102BC8002AD1022380F83D300368154A934218D071
:102BD80002F50062934214D0B3F1804F11D0A2F5F0
:102BE800983293420DD002F58062934209D002F5E3
:102BF8008062934205D01A6842F001021A600020F0
:102C080070479A6802F00702062A07D01A6842F04D
:102C180001021A60002070470120704700207047A9
:102C2800002C01400368196A41F21112114208D1BF
:102C3800196A40F24442114203D11A6822F0010293
:102C48001A60012380F83D30002070470368244A49
:102C5800904212D002F5006290420ED0B0F1804F3F
:102C68000BD0A2F59832904207D002F580629042CC
:102C780003D002F58062904203D123F070034A68C2
:102C88001343174A904212D002F5006290420ED0C8
:102C9800B0F1804F0BD0A2F59832904207D002F5E0
:102CA8008062904203D002F58062904203D123F4FF
:102CB8004073CA68134323F080034A6913430360CF
:102CC8008B68C3620B688362054B984203D003F597
:102CD8000063984201D10B69036301234361704784
:102CE800002C014040B310B5044690F83D30F3B1D4
:102CF800022384F83D30214651F8040BFFF7A6FF64
:102D0800012384F8463084F83E3084F83F3084F854
:102D1800403084F8413084F8423084F8433084F8F5
:102D2800443084F8453084F83D30002010BD80F8E8
:102D38003C3001F07BFFDBE70120704710B484686A
:102D480024F47F4442EA03220A432243826010BCEF
:102D5800704790F83C30012B78D010B50446012319
:102D680080F83C30022380F83D300268936823F4F1
:102D78007F4323F0770393600B68602B4CD029D8EE
:102D8800402B54D00CD9502B22D1CA68496800680E
:102D9800FFF7E4FE50212068FFF705FF002005E05B
:102DA800202B0DD009D9302B0AD00120012384F81B
:102DB8003D30002384F83C3010BD0BB1102B05D1F9
:102DC80019462068FFF7EFFE0020EFE70120EDE746
:102DD8000120EBE7B3F5805F34D0B3F5005F0CD189
:102DE800CB684A6889680068FFF7A8FF226893687B
:102DF80043F4804393600020D8E7702B24D1CB683C
:102E08004A6889680068FFF799FF2268936843F069
:102E1800770393600020C9E7CA6849680068FFF72C
:102E2800AFFE60212068FFF7BEFE0020BEE7CA683B
:102E380049680068FFF792FE40212068FFF7B3FE5B
:102E48000020B3E70020B1E70120AFE70220704778
:102E580090F83C30012B33D030B4012380F83C305B
:102E6800022380F83D3003685C689D6824F0700494
:102E78000A6822435A600368124A934212D002F544
:102E8800006293420ED0B3F1804F0BD0A2F5983276
:102E9800934207D002F58062934203D002F5806224
:102EA800934204D125F080054A6815439D600123AB
:102EB80080F83D30002380F83C30184630BC70471D
:102EC80002207047002C0140026802F10C0353E80D
:102ED800003F23F0C0030C3242E800310029F3D14F
:102EE800202380F841307047026802F10C0353E850
:102EF800003F23F490730C3242E800310029F3D1EB
:102F0800026802F1140353E8003F23F0010314326E
:102F180042E800310029F3D1036B012B05D02023AF
:102F280080F84230002303637047026802F10C0303
:102F380053E8003F23F010030C3242E80031002927
:102F4800F3D1ECE790F84130DBB2212B01D002201D
:102F580070478368B3F5805F17D0036A5A1C026212
:102F68001A7803685A60C38C9BB2013B9BB2C38436
:102F78004BB90268D36823F08003D3600268D36832
:102F880043F04003D360002070470369002BE4D16D
:102F9800036A1B880268C3F308035360036A023399
:102FA8000362E0E710B504460268136923F440534E
:102FB800C1680B43136183680269134342691A436A
:102FC8000168CB6823F4B05323F00C031343CB60A0
:102FD8000268536923F4407381690B4353610268A3
:102FE800124B9A421FD0FFF7EFFB00EB800303EB75
:102FF800830362689200B3FBF2F20D48A0FB023132
:103008004909642303FB11231B013233A0FB03236B
:103018005B0903F0F00202EB011203F00F032168D1
:1030280013448B6010BDFFF7DFFBDEE7003801407B
:103038001F85EB512DE9F84305460F46164699467C
:10304800DDF820802C68246837EA04030CBF0124CB
:103058000024B4422DD1B8F1FF3FF3D0B8F1000FEE
:1030680005D0FEF7D5F8A0EB09004045EAD92A6853
:1030780002F10C0353E8003F23F4D0730C3242E80A
:1030880000310029F3D12A6802F1140353E8003F04
:1030980023F00103143242E800310029F3D1202340
:1030A80085F8413085F84230002385F84030032008
:1030B80000E00020BDE8F88360B310B5044690F83E
:1030C800413013B3242384F841302268D36823F4B1
:1030D8000053D3602046FFF765FF2268136923F485
:1030E800904313612268536923F02A0353612268CD
:1030F800D36843F40053D36000206064202384F82D
:10310800413084F84230606310BD80F8403001F0EF
:103118005FFED7E7012070472DE9F04182B01E46D7
:1031280090F84130DBB2202B4BD104460D46904637
:1031380000294AD00AB9012044E00023436421232E
:1031480080F84130FEF764F80746A4F82480A4F814
:103158002680A368B3F5805F02D04FF000080FE027
:103168002369FBB14FF000080AE038F8023B2268F7
:10317800C3F308035360E28C92B2013A92B2E2843C
:10318800E38C9BB28BB100963B46002280212046FF
:10319800FFF750FFD8B9002DE7D015F8012B2368A9
:1031A8005A60E8E7A8460025EAE700963B46002271
:1031B80040212046FFF73EFF58B9202384F84130CC
:1031C80000E0022002B0BDE8F0810120FAE7032008
:1031D800F8E70320F6E710B5044603685A6990F843
:1031E8004130DBB2212B0AD023685A6902F0400231
:1031F80094F84230DBB2222B19D0002010BD02F027
:103208008002002AF0D0226802F1140353E8003F3C
:1032180023F08003143242E800310029F3D1A06B77
:1032280008B1FEF716F92046FFF74EFEDCE7002A44
:10323800E3D0226802F1140353E8003F23F040036F
:10324800143242E800310029F3D1E06B08B1FEF7EF
:1032580000F92046FFF748FECFE7704708B5016838
:10326800CA6822F04002CA60202280F84120FFF795
:10327800F4FF002008BD70477047704710B5446AD6
:1032880023685A6994F84130DBB2212B10D02368A7
:103298005A6902F0400294F84230DBB2222B11D076
:1032A800636C43F0100363642046FFF7E6FF10BD2C
:1032B80002F08002002AEAD00023E3842046FFF7C8
:1032C80003FEE4E7002AEBD00023E3852046FFF75E
:1032D8000BFEE5E708B5406A0023C385C384FFF702
:1032E800CCFF08BD704790F84230DBB2222B69D181
:1032F8008368B3F5805F4FD0826AB3F5805F04D0EE
:10330800002B56D10369002B53D103685B681370F7
:10331800836A01338362C38D9BB2013B9BB2C38531
:10332800002B51D100B583B00268D36823F0200385
:10333800D3600268D36823F48073D360026853694A
:1033480023F001035361202380F8423000234363B4
:10335800036B012B33D100230363026802F10C03D2
:1033680053E8003F23F010030C3242E800310029F3
:10337800F3D103681A6812F0100F06D000220192E8
:103388001A6801925B680193019B818DFFF7AAFF80
:10339800002003B05DF804FB0269002AACD1826A00
:1033A80003685B68C3F308031380836A023383628C
:1033B800B1E703685B6803F07F031370A8E7FFF7C2
:1033C8005AFFE5E7022070470020704730B583B008
:1033D800044602681368D068516913F00F0505D1D7
:1033E80013F0200F02D010F0200F19D12DB111F0D9
:1033F800010119D110F4907F16D1216B01297DD0DC
:1034080013F0800F03D010F0800F40F0188113F0F4
:10341800400F03D010F0400F40F0158103B030BDCD
:103428002046FFF760FFF9E713F0010F06D010F40C
:10343800807F03D0626C42F00102626413F0040FD3
:1034480004D019B1626C42F00202626413F0020FF8
:1034580004D019B1626C42F00402626413F0080FE0
:1034680007D010F0200F00D119B1626C42F00802A9
:103478006264626C002AD1D013F0200F02D010F0E1
:10348800200F29D123685B6903F04003626C12F0B6
:10349800080F00D163B32046FFF726FD23685B6958
:1034A80013F0400F20D0226802F1140353E8003FC4
:1034B80023F04003143242E800310029F3D1E36BD2
:1034C80073B1634A5A63E06BFDF7E6FF0028A5D0A5
:1034D800E06B436B9847A1E72046FFF704FFD1E76D
:1034E8002046FFF7CAFE99E72046FFF7C6FE95E794
:1034F8002046FFF7C2FE002363648FE713F0100F26
:103508003FF47EAF10F0100F3FF47AAF0023019321
:103518001368019353680193019B536913F0400F9B
:1035280051D0E26B13685B689BB2002B3FF476AF17
:10353800A18D99427FF672AFE3859369202B37D02E
:10354800226802F10C0353E8003F23F480730C3225
:1035580042E800310029F3D1226802F1140353E84C
:10356800003F23F00103143242E800310029F3D16F
:10357800226802F1140353E8003F23F04003143299
:1035880042E800310029F3D1202384F84230002397
:103598002363226802F10C0353E8003F23F0100371
:1035A8000C3242E800310029F3D1E06BFDF751FFFE
:1035B80002236363A18DE38D9BB2C91A89B22046A9
:1035C800FFF790FE2AE7A18DE38D9BB2C91A89B255
:1035D800E38D9BB2002B3FF421AF00293FF41EAFCF
:1035E800226802F10C0353E8003F23F490730C3275
:1035F80042E800300028F3D1226802F1140353E8AE
:10360800003F23F00103143242E800300028F3D1D0
:10361800202384F8423000232363226802F10C033C
:1036280053E8003F23F010030C3242E80030002832
:10363800F3D1022363632046FFF754FEEEE62046EB
:10364800FFF780FCEAE62046FFF708FEE6E600BF43
:10365800DD32000808B5406A01234363036B012B80
:1036680002D0FFF709FE08BD818D4908FFF73AFE31
:10367800F9E708B50346406A1B681B6813F0200F7A
:103688002BD10023C385026802F10C0353E8003FE5
:1036980023F480730C3242E800310029F3D1026828
:1036A80002F1140353E8003F23F00103143242E807
:1036B80000310029F3D1026802F1140353E8003FF6
:1036C80023F04003143242E800310029F3D12023CB
:1036D80080F84230036B012B07D000234363036B50
:1036E800012B0FD0FFF7C7FD08BD026802F10C03DC
:1036F80053E8003F23F010030C3242E80031002960
:10370800F3D1EAE7818DFFF7EDFDEDE730B583B042
:10371800044613468162828500254564222280F88A
:103728004220C26B1F489062E26B1F48D062E26B76
:103738001E481063E26B556320680A46011DE06B62
:10374800FDF74CFE019523681A6801925B680193A6
:10375800019B23695BB1226802F10C0353E8003F27
:1037680043F480730C3242E800310029F3D1226817
:1037780002F1140353E8003F43F00103143242E816
:1037880000310029F3D1226802F1140353E8003F05
:1037980043F04003143242E800310029F3D10020FD
:1037A80003B030BD7B3600085D360008853200085E
:1037B80008B590F84230DBB2202B08D149B10AB9DC
:1037C800012008BD00230363FFF7A0FFF9E70220EB
:1037D800F7E70120F5E7000008B50649064800F0BC
:1037E800E5FA0028F9D10349044800F0DFFA002877
:1037F800F9D108BDC8C20008CCC200081CC3000823
:1038080008B50C490C4800F0D1FA0028F9D10A2073
:10381800FDF704FD0749094800F0C8FA0028F9D166
:103828000449074800F0C2FA0028F9D1FFF7D4FF8D
:1038380008BD00BFC8C2000870C30008F8C300086C
:103848006CC4000810B50E4C012280212046FEF7FA
:1038580072F9012240212046FEF76DF9052001F09A
:1038680033FA002280212046FEF765F9052001F091
:103878002BFA002240212046FEF75DF910BD00BF5B
:10388800000C014010B50B4C002280212046FEF7A9
:1038980052F9012240212046FEF74DF9052001F09A
:1038A80013FA012280212046FEF745F9052001F090
:1038B8000BFA10BD000C014010B584B00446C023BB
:1038C8000093012301930223039369461148FEF7ED
:1038D8000FF8012C18D0ACB9002280210D48FEF752
:1038E8002AF90C4C012240212046FEF724F9052034
:1038F80001F0EAF9002240212046FEF71CF90520D4
:1039080001F0E2F904B010BD012280210148FEF760
:1039180012F9E6E7000C014030B585B000230193A9
:103928000223039380250095164C69462046FDF72F
:10393800DFFF012240212046FEF7FDF8052001F0B7
:10394800C3F929462046FEF7EFF8012815D00E4B9B
:1039580000221A700B4C002240212046FEF7EBF89B
:10396800052001F0B1F90123019369462046FDF7CE
:10397800BFFF054B187805B030BD034B01221A7004
:10398800E8E700BF000C0140FB09002070B50446C1
:10399800002519E0012280211248FEF7CCF86400C6
:1039A800E4B2104E012240213046FEF7C4F805204B
:1039B80001F08AF9002240213046FEF7BCF80520C4
:1039C80001F082F90135EDB2072D08D814F0800F07
:1039D800E0D1002280210348FEF7ADF8DFE7FFF7CA
:1039E8009BFF70BD000C014008B5FFF72BFF462078
:1039F800FFF7CCFF0120FFF7C9FFFFF743FF08BD22
:103A080010B50446FFF71EFF4620FFF7BFFF20460C
:103A1800FFF7BCFFFFF736FF10BD000070B584B09C
:103A28000025019580260096022303931A4C6946C7
:103A38002046FDF75DFF012231462046FEF77BF860
:103A48002C460BE02043C4B2002240211248FEF766
:103A580072F8052001F038F90135EDB2072D12D8BA
:103A68006400E4B20C4E012240213046FEF763F8B0
:103A7800052001F001F980213046FEF755F80128AC
:103A8800E0D00020DEE70123019369460248FDF7F4
:103A98002FFF204604B070BD000C014010B5FFF7A1
:103AA800D1FE4720FFF772FF002404E00120FFF752
:103AB80003FF0134E4B2022C09D8FFF7AFFF074B2C
:103AC8001855032CF2D00020FFF7F6FEF1E7FFF7B8
:103AD800D9FE052001F0EAF810BD00BFF809002062
:103AE80008B50120FFF78CFF1020FFF789FFB420ED
:103AF800FDF794FBFFF7D2FF094B1A78587800EBD3
:103B0800022080B2FDF730F8FCF7EEFC4FF03332BC
:103B1800044BFCF76BFEFCF751FF80B208BD00BFF9
:103B2800F80900203333F33F00B585B02023009314
:103B38000123019302930323039369460248FDF787
:103B4800D7FE05B05DF804FB0020014000B585B044
:103B580000230393019320230093012302936946D2
:103B68000248FDF7C5FE05B05DF804FB00200140E2
:103B780010B5FFF7D9FF094C002220212046FDF798
:103B8800DAFF1420FDF74AFB012220212046FDF729
:103B9800D2FF1E2001F070F810BD00BF00200140C8
:103BA80010B5FFF7D3FF002420211248FDF7BCFF12
:103BB800012807D1632C05D80134E4B2012001F0B3
:103BC8005BF8F1E7632C11D8002420210948FDF7A0
:103BD800ABFF38B9632C05D80134E4B2012001F0F9
:103BE8004BF8F2E7632C03D8002010BD0120FCE756
:103BF8000120FAE70020014010B5002420211448D4
:103C0800FDF792FF012809D1632C05D80134E4B2ED
:103C1800012001F031F8F1E7002400E00024202120
:103C28000B48FDF781FF38B9632C05D80134E4B29D
:103C3800012001F021F8F2E7282001F01DF82021E9
:103C48000348FDF771FF012800D0002010BD00BF18
:103C58000020014038B50025284607E04000C4B2DE
:103C6800FFF7CAFF2043C0B20135EDB2072DF5D9E1
:103C780038BD2DE9F04782B08146884617461E4672
:103C8800FFF776FFFFF78CFF60B982460446042CE5
:103C98000BD8FFF7DFFF02AB1D1905F8080C01343C
:103CA800E4B2F4E74FF0010A0EE09DF800409DF8F9
:103CB800010023189DF802100B449DF803201344BB
:103CC8009DF80450AB4203D0504602B0BDE8F087DF
:103CD80089F8004088F8000039703270F4E7000075
:103CE80070B586B0104B9A6942F480729A619B69EC
:103CF80003F480730193019B202502950126039606
:103D08000023049303230593084C02A92046FDF7DA
:103D1800EFFD324629462046FDF70DFFFFF728FF45
:103D2800FFF73EFF06B070BD0010024000200140C2
:103D380000B583B00A4B5A6942F001025A615B69C7
:103D480003F001030193019B002211461020FDF7A7
:103D58008BFA1020FDF7BCFA03B05DF804FB00BF36
:103D68000010024008B54FF480620021034801F0BA
:103D780023F9034B00221A8008BD00BFFC0900206C
:103D8800FC0D002070B505460E460024B44209D249
:103D980015F8012B044B5A600120FDF73FFA013456
:103DA800E4B2F3E770BD00BF0044004038B50446F4
:103DB8000D46FFF7D7FF204601F0FAF9C1B22046B9
:103DC800FFF7E0FFC82203E00A20FDF727FA2246A2
:103DD800531EDCB23AB12946044801F06FFB0028B3
:103DE800F2D0002038BD0120FCE700BFFC0900200C
:103DF80010B5144C4FF4806213492046FFF7D8FCE5
:103E08002268D36843F01003D36005E00F491048D7
:103E1800FFF7CCFF0028F9D10E490F48FFF7C6FF7E
:103E28000028F3D109490D48FFF7C0FF0028F9D150
:103E380006490B48FFF7BAFF0028F9D1094801F0F5
:103E48000BF910BDDC0F0020FC090020C8C20008D7
:103E5800B4C40008BCC40008C4C40008D0C4000826
:103E6800E0C4000808C5000884B00F4B9A6942F006
:103E780010029A619A6902F010020192019A9A69F5
:103E880042F004029A619A6902F004020292029ACC
:103E98009A6942F008029A619B6903F00803039348
:103EA800039B04B0704700BF0010024008B50B48E0
:103EB8000B4B03600B4B436000238360C3604FF4DC
:103EC8008042026143618361C3610362FDF7E2FFDF
:103ED80000B908BD00F07CF8FBE700BF000E002029
:103EE80000540040A086010008B50B480B4B036046
:103EF8000B4B436000238360C3604FF48042026130
:103F080043618361C3610362FDF7C4FF00B908BD63
:103F180000F05EF8FBE700BF540E00200058004098
:103F2800A086010010B588B000230493059306937A
:103F380007930368224A934204D0224A93421FD02F
:103F480008B010BD204CA36943F00803A361A3691E
:103F580003F008030093009BC023049312230593E6
:103F68000323079304A91948FDF7C2FCE36943F446
:103F78000013E361E36903F400130193019BDFE796
:103F8800114CA36943F00803A361A36903F0080374
:103F98000293029B4FF44063049312230593032377
:103FA800079304A90948FDF7A3FCE36943F48003D8
:103FB800E361E36903F480030393039BC0E700BF55
:103FC800005400400058004000100240000C01401E
:103FD80072B6FEE700B597B000230F9311930793CD
:103FE800089309930A930B93019302930393049301
:103FF8000593069309220C924FF480320D920E938A
:104008000123109312930223139314924FF4E01395
:1040180015930CA8FEF7EAF8C8B90F2307930221F5
:104028000891002309934FF480620A920B9307A822
:10403800FEF70EFB68B9012301934FF40073029356
:1040480001A8FEF7E1FB30B917B05DF804FBFFF7F4
:10405800BFFFFFF7BDFFFFF7BBFF000070B5ADF571
:10406800836DFDF7B7F8FFF7B5FFFFF7FDFEFFF724
:104078005FFE00F0BFFA00F06BFD00F0A1FD00F05C
:1040880073FE00F08BFEFFF711FFFFF72DFFFFF720
:10409800AFFEFFF7B5FB00F099F900F09EF9FFF7C6
:1040A8001FFEFFF7A1FC00F069FC6420FDF7B6F8DD
:1040B8000821202000F048FC00F068FC050C84B2C0
:1040C8000EE00821202000F03FFC00F05FFC050C0A
:1040D80084B28A4801F022F84FF4FA70FDF79EF88E
:1040E800B5F5C87F01D1002CEBD0854C00232246C2
:1040F8001946184600F057FA0123224600211020DD
:1041080000F051FA7F4C002322461946202000F087
:104118004AFA00237C4A1946522000F044FA7B4DA3
:1041280000232A460221184600F03DFA00232A46B9
:104138000221102000F037FA002322460221202015
:1041480000F031FA1023724A0221522000F010FACE
:10415800704D00232A460421184600F024FA012352
:104168002A460421102000F01EFA02232A460421C0
:10417800202000F018FA03232A460421302000F0FA
:1041880012FA002322460421402000F00CFA1023E2
:10419800614A0421702000F0EBF910235F4A0621E0
:1041A800002000F0E5F95E4D00232A4606211A207A
:1041B80000F0F9F901232A4606212A2000F0F3F934
:1041C8000023224606213A2000F0EDF91023554A33
:1041D8000621642000F0CCF903E04FF4FA70FDF7F3
:1041E8001DF80821202000F0AFFB00F0CFFB060CE3
:1041F8000DF216430DF217420DF214410DF215405F
:10420800FFF737FDFFF76CFC05469DF81434009363
:104218009DF815349DF816249DF81714424800F0AF
:104228001BFFEDB232462946404800F015FF102426
:10423800009402239DF817240021302000F04EF945
:1042480023462E220021402000F000F9009402238A
:104258009DF816240021422000F040F90094022322
:104268009DF815241946302000F038F923462E22EF
:104278000221402000F0EAF8009402239DF814245B
:104288001946422000F02AF9FFF72AFC024600945A
:1042980003230421502000F021F90094032332461F
:1042A80006214A2000F01AF9029601959DF8153466
:1042B80000939DF817341E4A4FF4806105A800F05A
:1042C80035FF1C4905A8FFF771FD4FF480620021F6
:1042D80005A800F071FE184905A8FFF767FD00283A
:1042E8003FF47BAFFFF784FDFFF78AFA4FF4806253
:1042F800002105A800F060FE6FE700BF14C50008A4
:104308009CD000085CD0000884C60008DCCE0008F9
:1043180020C500085CCF000824C5000828C500088F
:1043280004C600082CC5000830C500084CC50008A4
:1043380068C50008C8C20008FCC5000810B584B0EC
:1043480000240EE04FF48073029301230193074A7F
:1043580022440092002278210548FDF779FE0134B5
:10436800E4B21A2CEED904B010BD00BF080000203A
:10437800540E002000B587B08DF817004FF48073F5
:104388000293012301930DF1170200920022782174
:104398000248FDF75DFE07B05DF804FB540E0020EF
:1043A80000B587B08DF817004FF48073029301238E
:1043B80001930DF117020092402278210248FDF77F
:1043C80047FE07B05DF804FB540E002008B5C8206E
:1043D800FCF724FFFFF7B2FF08BD38B5002501E060
:1043E8000135EDB2072D14D8A5F15000C0B2FFF782
:1043F800C1FF0020FFF7BEFF1020FFF7BBFF00241E
:1044080014F0800FECD10020FFF7CAFF0134E4B2AA
:10441800F6E738BD10B50446A1F15000C0B2FFF769
:10442800A9FF200940F01000FFF7A4FF04F00F00D7
:10443800FFF7A0FF10BD024601204B1EDBB219B1E9
:1044480002FB00F01946F8E770470000F8B5074688
:104458000E46203AD5B210F0800F13D1102B15D08C
:1044680031463846FFF7D6FF0024052C30D805EB37
:104478004503184A02EB4303185DFFF791FF013427
:10448800E4B2F2E70236F6B20027E7E731463846EB
:10449800FFF7C0FF002407E004EB05130E4AD05CC9
:1044A800FFF77EFF0134E4B2072CF5D9711CC9B2BD
:1044B8003846FFF7AFFF002408E004EB0513083384
:1044C800054AD05CFFF76CFF0134E4B2072CF4D93D
:1044D800F8BD00BFC4C60008ECC800082DE9F84FB5
:1044E80083468A4691461E469DF828704FF000087C
:1044F800454619E0780800FB05F0C0B258443B4631
:1045080020225146C0B2FFF7A1FF0BE0780800FB5C
:1045180005F0C0B2303458443B46E2B25146C0B20E
:10452800FFF794FF0135EDB2B5421CD2711BC9B239
:104538000139C9B20A20FFF77EFFB9FBF0F00B4C36
:10454800A4FB0034E40804EB8404A0EB4404E4B2C4
:10455800B8F1000FDAD1731E9D42D7DA002CC9D00A
:104568004FF00108D2E7BDE8F88F00BFCDCCCCCC26
:104578002DE9F04104460E4617469846002501E00D
:104588000135EDB27A5D62B1434631462046FFF708
:104598005DFF0834E4B2782CF2D90236F6B2002472
:1045A800EEE7BDE8F0812DE9F04180460F4615465B
:1045B8001E46FFF72FFF00240F2C07D805EB8613A4
:1045C800185DFFF7EDFE0134E4B2F5E7791CC9B2D6
:1045D8004046FFF71FFF00240F2C08D8B1012031F7
:1045E8002944085DFFF7DCFE0134E4B2F4E7BDE8D6
:1045F800F081000008B50848084B03604FF0FF330E
:1046080043604FF480738360FEF750FA00B908BD29
:10461800FFF7DEFCFBE700BFA80E002000280040E3
:1046280002680C4B9A4200D0704700B583B0FDF782
:10463800C1FD094BDA6942F00062DA61DB6903F017
:1046480000630193019B054B01221A6003B05DF8DA
:1046580004FB00BF00280040001002403C04424216
:1046680030B587B0124CA36943F00403A361A36972
:1046780003F004030093009B202302930123039378
:10468800032305930B4D02A92846FDF731F9A369C9
:1046980043F00403A361A36903F004030193019B9E
:1046A8004023029302A92846FDF722F907B030BD3E
:1046B800001002400008014000B585B04023009377
:1046C800012301930323039369460348FDF710F977
:1046D80005B05DF804FB00BF0008014000B585B0D7
:1046E800402300930023019303230393694603485F
:1046F800FDF7FEF805B05DF804FB00BF00080140B7
:1047080010B5FFF7D9FF0E4C012240212046FDF7D6
:1047180012FA012220212046FDF70DFA142000F09C
:10472800ABFA002240212046FDF705FA142000F0DC
:10473800A3FA002220212046FDF7FDF910BD00BF95
:104748000008014010B5FFF7B7FF0E4C00222021EA
:104758002046FDF7F0F9002240212046FDF7EBF94D
:10476800142000F089FA012220212046FDF7E3F900
:10477800012240212046FDF7DEF9142000F07CFAE2
:1047880010BD00BF0008014038B5FFF7A7FF154C62
:10479800012240212046FDF7CEF90A2000F06CFAEC
:1047A800012220212046FDF7C6F90A2000F064FA0C
:1047B800002440210B48FDF7B7F9054638B101340C
:1047C800E4B2FA2CF5D9FFF7BDFF012507E0002276
:1047D800202100F1804000F58430FDF7ACF928462F
:1047E80038BD00BF0008014010B50F4C0022202141
:1047F8002046FDF7A0F9FFF75FFF00224021204681
:10480800FDF799F9142000F037FA012220212046FB
:10481800FDF791F9142000F02FFA002220212046FC
:10482800FDF789F910BD00BF0008014010B50F4C15
:10483800002220212046FDF77EF9FFF73DFF0122E7
:1048480040212046FDF777F9142000F015FA0122DF
:1048580020212046FDF76FF9142000F00DFA002200
:1048680020212046FDF767F910BD00BF0008014070
:1048780070B50446FFF720FF002220211848FDF7F5
:104888005AF900251CE0012240211548FDF753F98B
:104898006400E4B2142000F0EFF9114E0122202147
:1048A8003046FDF748F9142000F0E6F900222021EF
:1048B8003046FDF740F9142000F0DEF90135EDB27D
:1048C800072D08D814F0800FDDD1002240210448BC
:1048D800FDF731F9DCE7142000F0CEF970BD00BF18
:1048E80000080140F8B50746FFF7F8FE0024254602
:1048F80004E0142000F0C0F90135EDB2072D18D8F6
:10490800104E002220213046FDF715F9142000F042
:10491800B3F9012220213046FDF70DF96400A4B255
:1049280040213046FDF700F90028E2D00134A4B256
:10493800DFE71FB9FFF77AFF2046F8BDFFF754FFFE
:10494800FAE700BF0008014038B505460C46FFF7F6
:10495800D7FEB020FFF78CFFFFF716FF2846FFF7BA
:1049680087FFFFF711FF2046FFF782FFFFF70CFFD5
:10497800FFF7E8FE6420FCF751FC38BD08B5FFF7E7
:104988006FFE03212020FFF7DFFF08BD10B5FFF7FA
:10499800B7FEB120FFF76CFFFFF7F6FE0120FFF727
:1049A800A1FF04020120FFF79DFF04440120FFF747
:1049B80099FF24020120FFF795FF044424020020F8
:1049C800FFF790FF0444FFF7BDFE204610BD00002E
:1049D80082B00E4B9A6942F001029A619A6902F01C
:1049E80001020092009ADA6942F08052DA61DB69CA
:1049F80003F080530193019B054A536823F0E06359
:104A080043F00073536002B0704700BF00100240CB
:104A180000000140FEE7FEE7FEE7FEE7FEE770471D
:104A28007047704708B5FCF7E7FB08BD08B50248B2
:104A3800FCF7E8FD08BD00BF500F002008B502488C
:104A4800FEF7C4FC08BD00BF940F002030B583B04A
:104A5800154C2046FEF7BAFC23681B6813F0100FAC
:104A680001D103B030BD2046FEF7B5FB0F4B1B68E4
:104A78005A68C2F5806292B20D4B1A800D4D4FF400
:104A88007A7329460C48FEF747FB4FF480622946A3
:104A98002046FEF78DFE0023019323681A680192D1
:104AA8005B680193019BDCE7DC0F0020500F0020BE
:104AB800FC0D0020FC090020940F002070B50C4666
:104AC80016460025B54207DAAFF30080214601F803
:104AD800010B01350C46F5E7304670BD70B50C4644
:104AE80016460025B54205DA14F8010B00F004FA61
:104AF8000135F7E7304670BD08B503460B4A126822
:104B080042B10A4A106803446A46934206D8074AE3
:104B1800136008BD054A06491160F2E700F022FA61
:104B28000C2303604FF0FF30F3E700BFBC0E0020FA
:104B3800801000204FF0FF3070474FF400534B6057
:104B48000020704701207047002070477047000020
:104B580000B587B000230293039304930593009351
:104B680001931548154A02604722426083604FF658
:104B7800FF72C260036143618361FEF7B3F890B9C5
:104B88004FF48053029302A90B48FEF7E2F868B984
:104B980000230093019369460748FEF759F940B985
:104BA80007B05DF804FBFFF713FAE9E7FFF710FA1F
:104BB800EEE7FFF70DFAF3E7C00E0020002C0140E6
:104BC80000B587B0002302930393049305930093E1
:104BD800019315484FF0804202604722426083608B
:104BE8004FF6FF72C26003618361FEF77BF890B9EC
:104BF8004FF48053029302A90B48FEF7AAF868B94C
:104C080000230093019369460748FEF721F940B94C
:104C180007B05DF804FBFFF7DBF9E9E7FFF7D8F920
:104C2800EEE7FFF7D5F9F3E7080F002082B0036835
:104C38000F4A934204D0B3F1804F0CD002B07047B2
:104C48000C4B9A6942F400629A619B6903F4006311
:104C58000093009BF2E703F50433DA6942F001029E
:104C6800DA61DB6903F001030193019BE6E700BF0A
:104C7800002C01400010024010B5C0F57F44FA3402
:104C8800A4B2094803685C62FDF796FF4FF6F97312
:104C98009C4204D8044B1B685C6AA4B2F6E702483D
:104CA800FDF7C0FF10BD00BFC00E002001460B4637
:104CB800013989B23BB142F6E0631A46013B9BB227
:104CC800002AFAD1F3E77047431E9BB2002849D067
:104CD80000BF00BF00BF00BF00BF00BF00BF00BFD4
:104CE80000BF00BF00BF00BF00BF00BF00BF00BFC4
:104CF80000BF00BF00BF00BF00BF00BF00BF00BFB4
:104D080000BF00BF00BF00BF00BF00BF00BF00BFA3
:104D180000BF00BF00BF00BF00BF00BF00BF00BF93
:104D280000BF00BF00BF00BF00BF00BF00BF00BF83
:104D380000BF00BF00BF00BF00BF00BF00BF00BF73
:104D480000BF00BF00BF00BF00BF00BF00BF00BF63
:104D580000BF00BF00BF00BF00BF00BF00BF00BF53
:104D68001846B1E77047000008B50A480A4B0360C7
:104D78004FF4E133436000238360C36003610C2276
:104D880042618361C361FEF797F900B908BDFFF777
:104D98001FF9FBE7940F00200038014008B50A48C6
:104DA8000A4B03604FF4E133436000238360C36020
:104DB80003610C2242618361C361FEF77DF900B98A
:104DC80008BDFFF705F9FBE7DC0F002000440040B1
:104DD80070B588B00023049305930693079303687E
:104DE8003F4A934205D004463E4A934233D008B026
:104DF80070BD3D4B9A6942F480429A619A6902F407
:104E080080420092009A9A6942F004029A619B6972
:104E180003F004030193019B4FF4007304930223EE
:104E2800059303230793314D04A92846FCF760FD39
:104E38004FF48063049300240594069404A928463B
:104E4800FCF756FD224621462520FCF70DFA2520C1
:104E5800FCF73EFACBE7244BDA6942F40032DA6118
:104E6800DA6902F400320292029A9A6942F0040264
:104E78009A619B6903F004030393039B042304933F
:104E88000223059303230793184E04A93046FCF721
:104E98002FFD0823049300250595069504A930469F
:104EA800FCF726FD1248134B03604560856080239C
:104EB800C360056145618561C561FCF743FA58B96E
:104EC8000B4BE3635C62002211462620FCF7CCF909
:104ED8002620FCF7FDF98AE7FFF77AF8F0E700BF2C
:104EE8000038014000440040001002400008014022
:104EF800500F00206C00024000B583B001904FF6BF
:104F0800FF73012201A90348FEF706F9019803B0CF
:104F18005DF804FB940F0020FFF718FE0B480C49BE
:104F28000C4A002302E0D458C4500433C4188C42FD
:104F3800F9D3094A094C002301E013600432A24264
:104F4800FBD300F015F8FFF789F870470000002040
:104F5800D8090020F4D30008D809002080100020C8
:104F6800FEE70000014B1868704700BF28000020CA
:104F780070B50D4E0D4D761BB61006D0002455F8B1
:104F8800043B01349847A642F9D1094E094D07F070
:104F980075F9761BB61006D0002455F8043B013489
:104FA8009847A642F9D170BDE8D30008E8D30008B5
:104FB800F0D30008E8D30008F0B4860746D0541EA2
:104FC800002A3CD00346CAB201E0013C37D303F8BB
:104FD800012B9D07F9D1032C2AD9CDB245EA052525
:104FE8000F2C45EA054534D9A4F1100222F00F0C24
:104FF80003F120071609674403F1100242E904553A
:1050080042E902551032BA42F8D1721C14F00C0F62
:1050180003EB021204F00F0613D0331F23F003032F
:105028000433134442F8045B9342FBD106F00304B3
:105038002CB1CAB21C4403F8012B9C42FBD1F0BC32
:10504800704734461346002CF3D1F8E7144603465C
:10505800C1E71A462646E0E70FB400B5074983B012
:1050680004AB086853F8042B8168019302F080F8B8
:1050780003B05DF804EB04B0704700BF28000020BF
:10508800F0B5054689B008460C46012700F090F8AF
:1050980002262149AA6B059004AB38440494039076
:1050A800AC68079702960691019322B3636E13F0DA
:1050B800010FB4F90C309AB201D1980525D59104A5
:1050C80006D4626E43F4005322F40052A381626650
:1050D800284601AA214605F083F9636E002814BF0B
:1050E8004FF0FF350A25DA0702D4A3899B0506D5B8
:1050F800284609B0F0BD284604F0CCFFD6E7A06DDD
:1051080005F012FB284609B0F0BDA06D05F00AFBBA
:10511800B4F90C309AB2D2E7B0C40008024B014689
:105128001868FFF7ADBF00BF280000200CB410B509
:105138001E4B00291C689CB033DB4FF402730290AD
:105148000690ADF814304FF6FF701FAB16D001393A
:105158001E9A04910791ADF8160002A92046019302
:1051680000F05EFA421C01DA8B2323600022029BC6
:105178001A701CB0BDE8104002B070470491079146
:10518800ADF816001E9A204602A9019300F048FACD
:10519800431C01DA8B2323601CB0BDE8104002B029
:1051A80070478B234FF0FF302360F5E7280000207D
:1051B80020F0030110F00300C0F1000051F8043B97
:1051C80000F1040C4FEACC0C6FF000021CBF22FA6D
:1051D8000CF213434FF0010C4CEA0C2C4CEA0C4C2B
:1051E800A3EB0C0222EA030212EACC1204BF51F824
:1051F800043B0430F4D0C2F1000102EA0102B2FA21
:1052080082F2C2F11F0200EBD20070472DE9F04F85
:10521800012B1D4681460F4690464FF00103ADF223
:105228001C4D40F2428100211A469C464FF0FF3443
:1052380006E019460122A3EB040C8B189D4210D9F5
:1052480008EB0400805C18F803608642F1D300F094
:1052580081804FF0010C62460C4661448B189D42D8
:10526800EED8CDF808C04FF0010C00216246634625
:105278004FF0FF3006E019460122A3EB000C8B1813
:105288009D420FD908EB0206365C18F803E0B645D4
:10529800F1D865D04FF0010C6246084661448B187E
:1052A8009D42EFD8013004F1010B584502D38346E3
:1052B800CDF808C005AB0DF2144243F8045F9342E1
:1052C800FBD1002D00F0F5806C1E06AE08EB040043
:1052D80008F1FF32019612F8011FD3432B444344CF
:1052E800904246F82130F6D1029B5A46404608EBD8
:1052F800030105F081FD00287FD182460646029B06
:105308000BF1FF32EB1A0592039309EB060E1EF818
:105318000430019A52F8233043B3BAF1000F04D095
:10532800029A9342039A38BF13464FF0000A1E446C
:105338007B1BB342E9D209EB070045F4006106F094
:105348004BFC07447B1BB342DFD200200DF21C4DFF
:10535800BDE8F08F94450ABF0122013261446CE731
:1053680062450ABF89180132012288E7D3455B46A6
:1053780038BF5346A34211D2591E9A1941444A4490
:1053880002E00133A34209D212F8010B11F801CF50
:105398008445F6D0CBF101021644C6E7D345059BF8
:1053A8007CD90BEB06024A4408EB0B01CDF810B090
:1053B80002E0534515D0034612F8010D11F801CD4E
:1053C80003F1010B844503F1FF30F2D05B46DDF8B1
:1053D80010B00AF1010A9A450AD8DDE9023A1E44DA
:1053E800A6E753460AF1010A9A45DDF810B0F4D948
:1053F80070460DF21C4DBDE8F08FA5EB0B035B4525
:1054080038BF5B460026013304930BF1FF33029348
:10541800CBF10103039345F4006A09EB060E1EF86D
:105428000430019A52F823306BB11E447B1B9E4214
:10543800F3D909EB0700514606F0CEFB07447B1B66
:105448009E42EAD981E7A34514D2029B0BEB0602E0
:1054580008EB03014A445B4602E00133A34209D248
:1054680012F8010B11F801CF8445F6D0039A1644BF
:105478001E44DBE7BBF1000F12D00BEB06014944D9
:1054880008EB0B0201E043450AD012F801CD11F8F0
:10549800010D13468445F6D0049BC6E75B4698E7A2
:1054A80070460DF21C4DBDE8F08F4FF0000B0293D3
:1054B80000E706AB4FF0FF34019315E72DE9F04103
:1054C8000E460978044690B0002951D07278002A17
:1054D80000F08380B378002B4ED0F078002800F0DD
:1054E80083803379002B55D03046FFF761FE07469D
:1054F800204647F4007106F06FFB874268D8FE2FFC
:1055080000F28680A0EB070840226846791CA04478
:10551800FFF752FD7FB1721ED519F8B212F8013F9C
:105528000DF1400C03F03F03B11A63440144AA4251
:1055380003F8401CF2D1013CE35D10AA03F03F03DD
:10554800134413F8400C0444A04503D234E02C441F
:10555800A04531D3E55D10AB05F03F051D443A4643
:105568003146204615F8405C05F046FC0028EED18F
:10557800204610B0BDE8F08142EA0141027800E01F
:10558800044642EA0343601C12B399426278F7D199
:10559800013CEDE72278DAB1316809BA01E09942B5
:1055A80008D0204642EA032314F8012F002AF6D136
:1055B80099420DD1C41EDBE718F8073008EB070045
:1055C80033B14FF4006106F007FB80444445B2D97B
:1055D8000024204610B0BDE8F08106F061FA0446C8
:1055E800204610B0BDE8F081120442EA016242EAA6
:1055F8000323227800E02C4642EA0001651C0802D9
:10560800002AE5D0B3EB012F6278F4D1023CAFE772
:1056180001463B4620463246FFF7F8FD0446A7E719
:105628002DE9F04FD7B08B4617460E93814605F00B
:1056380071F8036818461893FFF7BAFDBBF80C30E9
:1056480017901D0604D5DBF81030002B00F0DF871B
:10565800002300210022CDE92B33CDE91A33CDE90F
:105668001C33139319930A932DAB98462A933B78CE
:10567800DA46CDE91412002B00F0A4813C4604E080
:1056880014F8013F002B00F0FD80252BF8D1E51B15
:1056980040F0FB802378002B00F0948100230B93CB
:1056A8008DF88B3007934FF0FF33667804F1010BC8
:1056B80020212B2409930BF1010BA6F120035A2B6F
:1056C80000F2FF80DFE813F0BC02FD00FD00B50228
:1056D800FD00FD00FD009102FD00FD006A00E702EB
:1056E800FD003402CD02FD00C6025B005B005B00DA
:1056F8005B005B005B005B005B005B00FD00FD0086
:10570800FD00FD00FD00FD00FD009001FD00F7011A
:105718007C00900190019001FD00FD00FD00FD005E
:105728008A02FD00FD00A900FD00FD00FD000B023E
:10573800FD003B02FD00FD008107FD00FD00FD00AE
:10574800FD00FD00FD00FD00FD009001FD00F701DA
:105758008000900190019001800280007500FD009A
:105768007602FD005E02AD004C027500FD000B02E2
:1057780072005B07FD00FD005F07FD00720000225C
:10578800A6F130031BF8016B02EB820203EB420225
:10579800A6F13003092BF5D90B928EE70E9B53F82F
:1057A800042B002A0B920E93C0F2BF819BF8006075
:1057B80081E7079B9BF8006043F0200307937AE793
:1057C800079B43F010030793079B9C0640F16281F7
:1057D8000E9B073323F007031946F1E8022314460A
:1057E8001D460E91002A73F10003C0F2AB85099B98
:1057F8000133079B00F0148423F0800354EA050268
:10580800089340F00E84099A002A40F00F84079309
:10581800002356AF09930C936BE2079B43F01003E8
:105828000793079B9A0640F126810E9B073323F0C6
:105838000703F3E802450E93079B23F4806308935C
:10584800002300228DF88B20099A1146013100F0BF
:105858003182089921F08001079154EA050140F04E
:105868002782002A40F07D83002BD1D1089B13F0BA
:1058780001030C9300F0908530230DF257178DF833
:10588800573136E2E51B00F09D80DDE92B3201330C
:105898002A44072BC8E90075CDE92B3206DC08F14C
:1058A80008080A9A23782A440A92F4E65146484698
:1058B8002AAA06F0A5F9002841F0CE830DF1B40814
:1058C800EFE7002E7ED0002301211A4608918DF8BB
:1058D800F4608DF88B300D930993129316931093FF
:1058E8000C913DAF079B13F0020302D008990231D7
:1058F8000891079911F084010F9105D10B99089827
:105908000D1A002D00F34B832C9C72B101202B9AA9
:10591800044402440DF18B01072ACDE92B24C8E980
:10592800001000F3CD8308F108086BB102212B9B0E
:105938000C44013323AA072BCDE92B34C8E90021F5
:1059480000F3CC8308F108080F9B802B00F0348209
:10595800099B0C9A9D1A002D00F36E82079BD905AE
:1059680000F1D5812B9B0C9A01331444072BC8E90D
:1059780000722C942B9300F3978308F10808079B77
:10598800590705D50B9B089A9D1A002D00F3B28381
:10599800DDE90A3208998A42ACBF9B185B180A9362
:1059A800002C40F07D8200232B930D9B1BB14846B1
:1059B8000D9904F00FFC5F460DF1B4083B78002BFD
:1059C8007FF45CAE2C9BD346002B41F04B82BBF896
:1059D8000C3013F0400F0A9B18BF4FF0FF330A93A7
:1059E8000A9857B0BDE8F08F0E9B073323F00703E2
:1059F8001946F1E80223CDE91423DDE9143424F033
:105A080000441D4618460E914FF0FF322146A44B24
:105A1800FBF700FA002840F0D984284621464FF0C9
:105A2800FF329F4BFBF7D8F9002840F0CF84DDE91F
:105A3800140100220023FBF7C5F9002841F00E806D
:105A48009DF88B2003200021964F974B08900D91CD
:105A5800472EC8BF1F46079C0C9024F0800407946B
:105A68000991129116911091002A3FF43BAF089BBF
:105A78000133089336E7079BDB0600F19C84079BFC
:105A88005F0640F1B2870E9B002553F8044B0E9336
:105A9800A4B2D1E6079BD80600F16885079B590692
:105AA80040F1BE870E9B53F8044B24B2E5170E93C2
:105AB80022462B4696E6002101240E9B0A4653F8FF
:105AC800040B0894CDE90D138DF88B108DF8F400B4
